:0C044300040841B00000040C00000000A0
:1003FD00E4F510D288D2A8D2AFE51065A060FA85D9
:10040D00A010AC10E412020E7BAC7AC579277836B9
:10041D001200FEC004C005C006C007AC10E41202F5
:10042D000ED003D002D001D0001200FE8F0F8E0E21
:06043D008D0D8C0C80C344
:030003000202D125
:1002D100C0E0C0F0C083C082C0D075D000C000C0F3
:0D02E10001C002C003C004C005C006C00774
:1002EE00AB0BAA0AA909A808E4FFFE7DA07C411267
:1002FE0000097BE17A6B793E78381200FEC004C0AB
:10030E0005C006C007AF0FAE0EAD0DAC0CAB0BAA01
:10031E000AA909A80812000DD003D002D001D000FE
:10032E0012000D8F0B8E0A8D098C08E4FFFE7DC81E
:10033E007C42AB0BAA0AA909A8081200FE120242BF
:08034E00AD07AC068C908D8018
:10035600D007D006D005D004D003D002D001D000FB
:0B036600D0D0D082D083D0F0D0E032A5
:100006000202AEE86480F8E933E83360110460F078
:10001600ED33EC337009E8FCE9FDEAFEEBFF220460
:1000260060DED3EB9FEA9EE99DE8C2E78CF0C2F75B
:1000360095F0400CE8CCF8E9CDF9EACEFAEBCFFB27
:1000460012027985D0F05804700320D5B3E8047005
:10005600075002B2D50202B892D5EC0460F7E4CCA0
:10006600C0E0C398F8603B94186008400DD0E0FBF0
:10007600020290E4FBFAC9FC8028E830E406E4C9F1
:10008600FBE4CAFCE830E305E4C9CACBFCE8540744
:100096006010F8C3E913F9EA13FAEB13FBEC13FC4F
:1000A600D8F130F52FC3E49CFCEF9BFFEE9AFEEDF2
:1000B60099FDD0E0FBEF4E4D4C701222DB0302029D
:1000C600B5EC2CFCEF33FFEE33FEED33FDED30E700
:1000D600EB020290EF2BFFEE3AFEED39FDD0E0FB8E
:1000E60050130BBB00030202B8ED13FDEE13FEEF37
:0800F60013FFEC13FC02029061
:1000FE00EC4D6011E8497017ED33EC3304600DE4FC
:10010E00FCFFFEFD22E933E8330470F80202AE1262
:10011E00027958046009E4CC248150062850090263
:10012E0002B82840030202B5C0E0EB4A7044B98021
:10013E0006D0E0FB0202A4EF4E701CBD8008EBFF60
:10014E00EAFEE9FD80EBE98DF0A4FEE5F00201E7A1
:10015E00E9CDF9EAFEEBFFEF89F0A4FCE5F0CE89DC
:10016E00F0A42EFFE435F0CD89F0A42DFEE435F099
:10017E008067EF4E7005BD80D780C3EF8BF0A4ACC7
:10018E00F0EE8BF0A42CFCE435F0F8EF8AF0A42C02
:10019E00E5F038FCE433CB8DF0A42CFCE5F03BF815
:1001AE00EE8AF0A42CFCE5F038F8E433CF89F0A405
:1001BE002CFCE5F038CF3400CE89F0A42FFFE5F00B
:1001CE003EFEE433C98DF0A42EFEE5F039CD8AF063
:1001DE00A42FFFE5F03EFEE43DFD33D0E0FB5007DB
:1001EE000BBB000F0202B8EC2CFCEF33FFEE33FE1C
:0601FE00ED33FD0202904A
:1002040075F020800E75F010800575F0087D007E75
:10021400007F003392D530D5031202C3EC33401073
:10022400EF33FFEE33FEED33FDEC33FCD5F0ED227E
:0E023400E5F0247EA2D513CC92E7CDCEFF22BA
:10024200EDD2E7CD33EC3392D524814006E4FFFEB4
:10025200FDFC22FCE4CFCECDCC24E0501174FF8013
:10026200EDC3CC13CCCD13CDCE13CECF13CF0470B0
:07027200F030D5DE0202C3EB
:10027900E9D2E7C933E833F892D5EDD2E7CD33ECCB
:0702890033FC5002B2D52244
:10029000EC30E7100FBF000C0EBE00080DBD0004CF
:1002A0000BEB6014A2D5EB13FCED92E7FD2274FF7B
:1002B000FCFDFEFF22E480F8A2D574FF13FC7D80D4
:0302C000E480EFE8
:0300000002037187
:0C037100787FE4F6D8FD7581100203B817
:0E02C300C3E49FFFE49EFEE49DFDE49CFC224C
:10037D000203FDE493A3F8E493A34003F68001F296
:10038D0008DFF48029E493A3F85407240CC8C33381
:10039D00C4540F4420C8834004F456800146F6DF50
:1003AD00E4800B0102040810204080900443E47E99
:1003BD00019360BCA3FF543F30E509541FFEE49345
:1003CD00A360010ECF54C025E060A840B8E493A30C
:1003DD00FAE493A3F8E493A3C8C582C8CAC583CA37
:1003ED00F0A3C8C582C8CAC583CADFE9DEE780BEEF
:01044F0000AC
:00000001FF
