:03000000020627CE
:0C062700787FE4F6D8FD75815102066E64
:1008BA003F065B4F666D7D077F6F010204081020BB
:0208CA0040806C
:1008000004403F00000004363C8B439604323E997E
:10081000999A02480000024E000002500000044A6B
:1008200000000000043C0000000004440000000040
:1008300008280000000001010107023A0000C10081
:0608400001210001270068
:0E08DC00438901758C3C758AB0D2A9D28C225A
:10000E00759850438920758DFD758BFDD28ED2ACBF
:03001E00D2AF223C
:080003008F993099FDC299228A
:1008A0007F551200037F02120003E53AFF12000396
:0A08B000AF3B1200037FAA02000311
:10070D0078097C007D007BFF7A0879BA7E007F0A2C
:10071D0012042C78137C007D007BFF7A0879C47E4F
:10072D00007F0812042C90E800E4F074282521F8CD
:10073D00E62409F8E690E400F074132521F8E6901C
:10074D00E800F00521C3E5219408748094804003EE
:03075D00E4F5219F
:010760002276
:0F08CC0090C100E0F50E90C200E0F50DFEAF0EFA
:0108DB0022FA
:1007B1008F108E0F8D0E8C0DAF18AE17AD16AC15B8
:1007C100AB10AA0FA90EA80D120224600B4009AFAD
:1007D10018AE17AD16AC1522AF14AE13AD12AC1195
:1007E100AB10AA0FA90EA80D1202245009AF14AE26
:0F07F10013AD12AC1122AF10AE0FAD0EAC0D2236
:1006B3007C007D64120498AA06AB077C037DE812D4
:1006C30004988F2C7C037DE8AF03AE02120498AA32
:1006D30004AB057C007D64AF03AE021204988F2D3A
:1006E3007C007D64AF03AE02120498AA04AB057CC0
:1006F300007D0AAF03AE021204988F2EAE02AF0341
:0A0703007C007D0A1204988D2F225D
:1004FB001208CC8E3A8F3B854E50854F5185484E16
:10050B0085494FC3E5319FF549E5309EF548AB4D25
:10051B00AA4CA94BA84AC000C001C002C003FCAD45
:10052B00491202A2D003D002D001D00012002D8FAD
:10053B004D8E4C8D4B8C4AE4F514F51375127A7570
:10054B0011C4F518F51775167A7515441207B18F86
:10055B004D8E4C8D4B8C4AC3E549954FFDE5489527
:10056B004EFC1202A28F3F8E3E8D3D8C3CAC48ADB3
:10057B0049EC1202A2AB43AA42A941A84012011EA8
:10058B00C004C005C006C007AF4DAE4CAD4BAC4A66
:10059B00AB39AA38A937A83612011ED003D002D026
:1005AB0001D00012002DC004C005C006C007AF3F2C
:1005BB00AE3EAD3DAC3CAB35AA34A933A8321201EB
:1005CB001ED003D002D001D00012002D8F0C8E0B49
:1005DB008D0A8C09AF47AE46AD45AC44AB0CAA0BAC
:1005EB00A90AA80912002D8F478E468D458C44E42D
:1005FB00F514F513F512F511F518F51775167F753A
:10060B0015431207B18F478E468D458C441202DB82
:0C061B0090C400EFF0AF3BAE3A0206B313
:100847001204526455702890000112046B64017001
:100857001E90000412046B64AA7014900002120424
:100867006BFE90000312046BFDEEF530EDF53122BF
:0300230002076170
:10076100C0E0C083C082C0D075D000C000C001C04D
:0907710002C003C005C006C00768
:10077A0030981DC298AF27052774222FF8A699E54D
:10078A00276405700BFB7A00792212084775270047
:10079A00D007D006D005D003D002D001D000D0D0E7
:0707AA00D082D083D0E032C1
:03000B000208EAFE
:0908EA00758C3C758AB0D2003215
:10087700E4F50812000E1208DC1204FB12070D3013
:1008870000F70508C3E508940574809480400612B4
:0908970008A0E4F508C20080E0AD
:10002600020347E86480F8E933E83360110460F0BE
:10003600ED33EC337009E8FCE9FDEAFEEBFF220440
:1000460060DED3EB9FEA9EE99DE8C2E78CF0C2F73B
:1000560095F0400CE8CCF8E9CDF9EACEFAEBCFFB07
:1000660012031285D0F05804700320D5B3E804704B
:10007600075002B2D502035192D5EC0460F7E4CCE6
:10008600C0E0C398F8603B94186008400DD0E0FBD0
:10009600020329E4FBFAC9FC8028E830E406E4C937
:1000A600FBE4CAFCE830E305E4C9CACBFCE8540724
:1000B6006010F8C3E913F9EA13FAEB13FBEC13FC2F
:1000C600D8F130F52FC3E49CFCEF9BFFEE9AFEEDD2
:1000D60099FDD0E0FBEF4E4D4C701222DB0302037C
:1000E6004EEC2CFCEF33FFEE33FEED33FDED30E747
:1000F600EB020329EF2BFFEE3AFEED39FDD0E0FBD4
:1001060050130BBB0003020351ED13FDEE13FEEF7C
:0801160013FFEC13FC020329A6
:10011E00EC4D6011E8497017ED33EC3304600DE4DB
:10012E00FCFFFEFD22E933E8330470F802034712A8
:10013E00031258046009E4CC2481500628500902A9
:10014E00035128400302034EC0E0EB4A7044B980CD
:10015E0006D0E0FB02033DEF4E701CBD8008EBFFA6
:10016E00EAFEE9FD80EBE98DF0A4FEE5F002020760
:10017E00E9CDF9EAFEEBFFEF89F0A4FCE5F0CE89BC
:10018E00F0A42EFFE435F0CD89F0A42DFEE435F079
:10019E008067EF4E7005BD80D780C3EF8BF0A4ACA7
:1001AE00F0EE8BF0A42CFCE435F0F8EF8AF0A42CE2
:1001BE00E5F038FCE433CB8DF0A42CFCE5F03BF8F5
:1001CE00EE8AF0A42CFCE5F038F8E433CF89F0A4E5
:1001DE002CFCE5F038CF3400CE89F0A42FFFE5F0EB
:1001EE003EFEE433C98DF0A42EFEE5F039CD8AF043
:1001FE00A42FFFE5F03EFEE43DFD33D0E0FB5007BB
:10020E000BBB000F020351EC2CFCEF33FFEE33FE61
:06021E00ED33FD0203298F
:1002240074F8CC6480CCC86480C8F58204604FC381
:10023400EB9FF5F0EA9E42F0E99D42F0E89C45F020
:10024400603C501DE5825FFFE582D313CB5BCBF4AA
:100254002B5582FB50280ABA002409B900200880D3
:100264001DE5825BFBE582D313CF5FCFF4C3132F6D
:100274005582FF50090EBE00050DBD00010CC3EBF5
:100284009FF5F0EA9E42F0E99D42F0E89C45F0605B
:0902940007CC4820E701B3EC227D
:10029D0075F020800E75F010800575F0087D007EDC
:1002AD00007F003392D530D5031204EDEC334010AE
:1002BD00EF33FFEE33FEED33FDEC33FCD5F0ED22E5
:0E02CD00E5F0247EA2D513CC92E7CDCEFF2221
:1002DB00EDD2E7CD33EC3392D524814006E4FFFE1B
:1002EB00FDFC22FCE4CFCECDCC24E0501174FF807A
:1002FB00EDC3CC13CCCD13CDCE13CECF13CF047017
:07030B00F030D5DE0204ED25
:10031200E9D2E7C933E833F892D5EDD2E7CD33EC31
:0703220033FC5002B2D522AA
:10032900EC30E7100FBF000C0EBE00080DBD000435
:100339000BEB6014A2D5EB13FCED92E7FD2274FFE1
:10034900FCFDFEFF22E480F8A2D574FF13FC7D803A
:03035900E480EF4E
:10063300020877E493A3F8E493A34003F68001F25E
:1006430008DFF48029E493A3F85407240CC8C333C8
:10065300C4540F4420C8834004F456800146F6DF97
:10066300E4800B0102040810204080900800E47E1F
:10067300019360BCA3FF543F30E509541FFEE4938C
:10068300A360010ECF54C025E060A840B8E493A353
:10069300FAE493A3F8E493A3C8C582C8CAC583CA7E
:1006A300F0A3C8C582C8CAC583CADFE9DEE780BE36
:0108460000B1
:10035C00E709F608DFFA8046E709F208DFFA803E83
:10036C0088828C83E709F0A3DFFA8032E309F60870
:10037C00DFFA8078E309F208DFFA807088828C83D8
:10038C00E309F0A3DFFA806489828A83E0A3F6088C
:10039C00DFFA805889828A83E0A3F208DFFA804C66
:1003AC0080D280FA80C680D4806980F2803380103D
:1003BC0080A680EA809A80A880DA80E280CA8033A6
:1003CC0089828A83ECFAE493A3C8C582C8CCC5831E
:1003DC00CCF0A3C8C582C8CCC583CCDFE9DEE780EE
:1003EC000D89828A83E493A3F608DFF9ECFAA9F06D
:1003FC00EDFB2289828A83ECFAE0A3C8C582C8CCC3
:10040C00C583CCF0A3C8C582C8CCC583CCDFEADEDB
:10041C00E880DB89828A83E493A3F208DFF980CC3D
:10042C0088F0EF60010E4E60C388F0ED2402B40436
:10043C000050B9F582EB2402B4040050AF232345DD
:06044C0082239003AC7353
:10045200BB010689828A83E0225002E722BBFE02A8
:09046200E32289828A83E49322DB
:10046B00BB010CE58229F582E5833AF583E0225046
:10047B0006E92582F8E622BBFE06E92582F8E22290
:0D048B00E58229F582E5833AF583E49322AA
:10049800BC000BBE0029EF8DF084FFADF022E4CC48
:1004A800F875F008EF2FFFEE33FEEC33FCEE9DEC11
:1004B800984005FCEE9DFE0FD5F0E9E4CEFD22ED57
:1004C800F8F5F0EE8420D21CFEADF075F008EF2FA1
:1004D800FFED33FD4007985006D5F0F222C398FD92
:0504E8000FD5F0EA222F
:0E04ED00C3E49FFFE49EFEE49DFDE49CFC2220
:00000001FF
